{
  "contractName": "Marketplace",
  "abi": [
    {
      "inputs": [
        {
          "internalType": "uint256",
          "name": "_feePercent",
          "type": "uint256"
        }
      ],
      "stateMutability": "nonpayable",
      "type": "constructor"
    },
    {
      "inputs": [],
      "name": "ReentrancyGuardReentrantCall",
      "type": "error"
    },
    {
      "anonymous": false,
      "inputs": [
        {
          "indexed": false,
          "internalType": "uint256",
          "name": "offerIndex",
          "type": "uint256"
        },
        {
          "indexed": true,
          "internalType": "address",
          "name": "nft",
          "type": "address"
        },
        {
          "indexed": false,
          "internalType": "uint256",
          "name": "tokenId",
          "type": "uint256"
        },
        {
          "indexed": false,
          "internalType": "uint256",
          "name": "price",
          "type": "uint256"
        },
        {
          "indexed": true,
          "internalType": "address",
          "name": "seller",
          "type": "address"
        },
        {
          "indexed": true,
          "internalType": "address",
          "name": "buyer",
          "type": "address"
        }
      ],
      "name": "Bought",
      "type": "event"
    },
    {
      "anonymous": false,
      "inputs": [
        {
          "indexed": false,
          "internalType": "uint256",
          "name": "offerIndex",
          "type": "uint256"
        },
        {
          "indexed": true,
          "internalType": "address",
          "name": "nft",
          "type": "address"
        },
        {
          "indexed": false,
          "internalType": "uint256",
          "name": "tokenId",
          "type": "uint256"
        },
        {
          "indexed": false,
          "internalType": "uint256",
          "name": "price",
          "type": "uint256"
        },
        {
          "indexed": true,
          "internalType": "address",
          "name": "seller",
          "type": "address"
        }
      ],
      "name": "Offered",
      "type": "event"
    },
    {
      "inputs": [],
      "name": "feeAccount",
      "outputs": [
        {
          "internalType": "address payable",
          "name": "",
          "type": "address"
        }
      ],
      "stateMutability": "view",
      "type": "function"
    },
    {
      "inputs": [],
      "name": "feePercent",
      "outputs": [
        {
          "internalType": "uint256",
          "name": "",
          "type": "uint256"
        }
      ],
      "stateMutability": "view",
      "type": "function"
    },
    {
      "inputs": [
        {
          "internalType": "uint256",
          "name": "",
          "type": "uint256"
        }
      ],
      "name": "items",
      "outputs": [
        {
          "internalType": "uint256",
          "name": "itemIndex",
          "type": "uint256"
        },
        {
          "internalType": "contract IERC721",
          "name": "nft",
          "type": "address"
        },
        {
          "internalType": "uint256",
          "name": "tokenId",
          "type": "uint256"
        },
        {
          "internalType": "uint256",
          "name": "price",
          "type": "uint256"
        },
        {
          "internalType": "address payable",
          "name": "seller",
          "type": "address"
        },
        {
          "internalType": "bool",
          "name": "sold",
          "type": "bool"
        }
      ],
      "stateMutability": "view",
      "type": "function"
    },
    {
      "inputs": [],
      "name": "lastIndex",
      "outputs": [
        {
          "internalType": "uint256",
          "name": "",
          "type": "uint256"
        }
      ],
      "stateMutability": "view",
      "type": "function"
    },
    {
      "inputs": [],
      "name": "offerCount",
      "outputs": [
        {
          "internalType": "uint256",
          "name": "",
          "type": "uint256"
        }
      ],
      "stateMutability": "view",
      "type": "function"
    },
    {
      "inputs": [
        {
          "internalType": "contract IERC721",
          "name": "_nft",
          "type": "address"
        },
        {
          "internalType": "uint256",
          "name": "_tokenId",
          "type": "uint256"
        },
        {
          "internalType": "uint256",
          "name": "_price",
          "type": "uint256"
        }
      ],
      "name": "makeOffer",
      "outputs": [],
      "stateMutability": "nonpayable",
      "type": "function"
    },
    {
      "inputs": [
        {
          "internalType": "uint256",
          "name": "_itemIndex",
          "type": "uint256"
        }
      ],
      "name": "purchase",
      "outputs": [],
      "stateMutability": "payable",
      "type": "function"
    },
    {
      "inputs": [
        {
          "internalType": "uint256",
          "name": "_itemIndex",
          "type": "uint256"
        },
        {
          "internalType": "uint256",
          "name": "_newPrice",
          "type": "uint256"
        }
      ],
      "name": "editOffer",
      "outputs": [],
      "stateMutability": "nonpayable",
      "type": "function"
    },
    {
      "inputs": [
        {
          "internalType": "uint256",
          "name": "_itemIndex",
          "type": "uint256"
        }
      ],
      "name": "cancelOffer",
      "outputs": [],
      "stateMutability": "nonpayable",
      "type": "function"
    },
    {
      "inputs": [
        {
          "internalType": "uint256",
          "name": "_itemIndex",
          "type": "uint256"
        }
      ],
      "name": "getTotalPrice",
      "outputs": [
        {
          "internalType": "uint256",
          "name": "",
          "type": "uint256"
        }
      ],
      "stateMutability": "view",
      "type": "function"
    },
    {
      "inputs": [],
      "name": "getUnsoldNFTs",
      "outputs": [
        {
          "internalType": "uint256",
          "name": "count",
          "type": "uint256"
        }
      ],
      "stateMutability": "view",
      "type": "function"
    }
  ],
  "bytecode": "0x60c060405234801562000010575f80fd5b5060405162001424380380620014248339818101604052810190620000369190620000bc565b60015f819055508060a081815250503373ffffffffffffffffffffffffffffffffffffffff1660808173ffffffffffffffffffffffffffffffffffffffff168152505050620000ec565b5f80fd5b5f819050919050565b620000988162000084565b8114620000a3575f80fd5b50565b5f81519050620000b6816200008d565b92915050565b5f60208284031215620000d457620000d362000080565b5b5f620000e384828501620000a6565b91505092915050565b60805160a0516113086200011c5f395f8181610560015261068d01525f81816102a70152610a5601526113085ff3fe60806040526004361061009b575f3560e01c80639190667511610063578063919066751461016d578063bfb231d214610197578063ca7dd375146101d8578063ef706adf14610214578063efef39a11461023c578063f3f6f0d7146102585761009b565b80631115c24d1461009f5780631cd7a534146100c957806365e17c9d146100f15780637de3bd071461011b5780637fd6f15c14610143575b5f80fd5b3480156100aa575f80fd5b506100b3610282565b6040516100c09190610c6c565b60405180910390f35b3480156100d4575f80fd5b506100ef60048036038101906100ea9190610cb3565b610288565b005b3480156100fc575f80fd5b506101056102a5565b6040516101129190610d30565b60405180910390f35b348015610126575f80fd5b50610141600480360381019061013c9190610d95565b6102c9565b005b34801561014e575f80fd5b5061015761055e565b6040516101649190610c6c565b60405180910390f35b348015610178575f80fd5b50610181610582565b60405161018e9190610c6c565b60405180910390f35b3480156101a2575f80fd5b506101bd60048036038101906101b89190610de5565b610605565b6040516101cf96959493929190610e85565b60405180910390f35b3480156101e3575f80fd5b506101fe60048036038101906101f99190610de5565b610688565b60405161020b9190610c6c565b60405180910390f35b34801561021f575f80fd5b5061023a60048036038101906102359190610de5565b6106e8565b005b61025660048036038101906102519190610de5565b61084b565b005b348015610263575f80fd5b5061026c610c01565b6040516102799190610c6c565b60405180910390f35b60015481565b8060035f8481526020019081526020015f20600301819055505050565b7f000000000000000000000000000000000000000000000000000000000000000081565b6102d1610c07565b5f8111610313576040517f08c379a000000000000000000000000000000000000000000000000000000000815260040161030a90610f3e565b60405180910390fd5b60015f81548092919061032590610f89565b919050555060025f81548092919061033c90610f89565b91905055508273ffffffffffffffffffffffffffffffffffffffff166323b872dd3330856040518463ffffffff1660e01b815260040161037e93929190610fdf565b5f604051808303815f87803b158015610395575f80fd5b505af11580156103a7573d5f803e3d5ffd5b505050506040518060c0016040528060025481526020018473ffffffffffffffffffffffffffffffffffffffff1681526020018381526020018281526020013373ffffffffffffffffffffffffffffffffffffffff1681526020015f151581525060035f60025481526020019081526020015f205f820151815f01556020820151816001015f6101000a81548173ffffffffffffffffffffffffffffffffffffffff021916908373ffffffffffffffffffffffffffffffffffffffff16021790555060408201518160020155606082015181600301556080820151816004015f6101000a81548173ffffffffffffffffffffffffffffffffffffffff021916908373ffffffffffffffffffffffffffffffffffffffff16021790555060a08201518160040160146101000a81548160ff0219169083151502179055509050503373ffffffffffffffffffffffffffffffffffffffff168373ffffffffffffffffffffffffffffffffffffffff167f655a0cf9c8db81512be9a76dc1c5ae5380b8816ce6ad659cd61b715e2999d59a600254858560405161054993929190611014565b60405180910390a3610559610c4b565b505050565b7f000000000000000000000000000000000000000000000000000000000000000081565b5f80600190505b6002548111610601575f60035f8381526020019081526020015f2060020154141580156105da57505f151560035f8381526020019081526020015f2060040160149054906101000a900460ff161515145b156105ee5781806105ea90610f89565b9250505b80806105f990610f89565b915050610589565b5090565b6003602052805f5260405f205f91509050805f015490806001015f9054906101000a900473ffffffffffffffffffffffffffffffffffffffff1690806002015490806003015490806004015f9054906101000a900473ffffffffffffffffffffffffffffffffffffffff16908060040160149054906101000a900460ff16905086565b5f60647f000000000000000000000000000000000000000000000000000000000000000060646106b89190611049565b60035f8581526020019081526020015f20600301546106d7919061107c565b6106e191906110ea565b9050919050565b6106f0610c07565b60035f8281526020019081526020015f206001015f9054906101000a900473ffffffffffffffffffffffffffffffffffffffff1673ffffffffffffffffffffffffffffffffffffffff166323b872dd303360035f8681526020019081526020015f20600201546040518463ffffffff1660e01b815260040161077493929190610fdf565b5f604051808303815f87803b15801561078b575f80fd5b505af115801561079d573d5f803e3d5ffd5b5050505060035f8281526020019081526020015f205f8082015f9055600182015f6101000a81549073ffffffffffffffffffffffffffffffffffffffff0219169055600282015f9055600382015f9055600482015f6101000a81549073ffffffffffffffffffffffffffffffffffffffff02191690556004820160146101000a81549060ff0219169055505060015f81548092919061083b9061111a565b9190505550610848610c4b565b50565b610853610c07565b5f60035f8381526020019081526020015f2090505f61087183610688565b90505f8311801561088457506002548311155b6108c3576040517f08c379a00000000000000000000000000000000000000000000000000000000081526004016108ba9061118b565b60405180910390fd5b80341015610906576040517f08c379a00000000000000000000000000000000000000000000000000000000081526004016108fd90611219565b60405180910390fd5b8160040160149054906101000a900460ff1615610958576040517f08c379a000000000000000000000000000000000000000000000000000000000815260040161094f90611281565b60405180910390fd5b816001015f9054906101000a900473ffffffffffffffffffffffffffffffffffffffff1673ffffffffffffffffffffffffffffffffffffffff166323b872dd303385600201546040518463ffffffff1660e01b81526004016109bc93929190610fdf565b5f604051808303815f87803b1580156109d3575f80fd5b505af11580156109e5573d5f803e3d5ffd5b50505050816004015f9054906101000a900473ffffffffffffffffffffffffffffffffffffffff1673ffffffffffffffffffffffffffffffffffffffff166108fc836003015490811502906040515f60405180830381858888f19350505050158015610a53573d5f803e3d5ffd5b507f000000000000000000000000000000000000000000000000000000000000000073ffffffffffffffffffffffffffffffffffffffff166108fc836003015483610a9e919061129f565b90811502906040515f60405180830381858888f19350505050158015610ac6573d5f803e3d5ffd5b5060018260040160146101000a81548160ff02191690831515021790555033826004015f6101000a81548173ffffffffffffffffffffffffffffffffffffffff021916908373ffffffffffffffffffffffffffffffffffffffff1602179055503373ffffffffffffffffffffffffffffffffffffffff16826004015f9054906101000a900473ffffffffffffffffffffffffffffffffffffffff1673ffffffffffffffffffffffffffffffffffffffff16836001015f9054906101000a900473ffffffffffffffffffffffffffffffffffffffff1673ffffffffffffffffffffffffffffffffffffffff167f8b4c9c8a607d67b321582dd8461041b1dc2ceeca70c8b7f37f8e02095cf2e76d8686600201548760030154604051610bec93929190611014565b60405180910390a45050610bfe610c4b565b50565b60025481565b60025f5403610c42576040517f3ee5aeb500000000000000000000000000000000000000000000000000000000815260040160405180910390fd5b60025f81905550565b60015f81905550565b5f819050919050565b610c6681610c54565b82525050565b5f602082019050610c7f5f830184610c5d565b92915050565b5f80fd5b610c9281610c54565b8114610c9c575f80fd5b50565b5f81359050610cad81610c89565b92915050565b5f8060408385031215610cc957610cc8610c85565b5b5f610cd685828601610c9f565b9250506020610ce785828601610c9f565b9150509250929050565b5f73ffffffffffffffffffffffffffffffffffffffff82169050919050565b5f610d1a82610cf1565b9050919050565b610d2a81610d10565b82525050565b5f602082019050610d435f830184610d21565b92915050565b5f610d5382610cf1565b9050919050565b5f610d6482610d49565b9050919050565b610d7481610d5a565b8114610d7e575f80fd5b50565b5f81359050610d8f81610d6b565b92915050565b5f805f60608486031215610dac57610dab610c85565b5b5f610db986828701610d81565b9350506020610dca86828701610c9f565b9250506040610ddb86828701610c9f565b9150509250925092565b5f60208284031215610dfa57610df9610c85565b5b5f610e0784828501610c9f565b91505092915050565b5f819050919050565b5f610e33610e2e610e2984610cf1565b610e10565b610cf1565b9050919050565b5f610e4482610e19565b9050919050565b5f610e5582610e3a565b9050919050565b610e6581610e4b565b82525050565b5f8115159050919050565b610e7f81610e6b565b82525050565b5f60c082019050610e985f830189610c5d565b610ea56020830188610e5c565b610eb26040830187610c5d565b610ebf6060830186610c5d565b610ecc6080830185610d21565b610ed960a0830184610e76565b979650505050505050565b5f82825260208201905092915050565b7f5072696365206d7573742062652067726561746572207468616e207a65726f215f82015250565b5f610f28602083610ee4565b9150610f3382610ef4565b602082019050919050565b5f6020820190508181035f830152610f5581610f1c565b9050919050565b7f4e487b71000000000000000000000000000000000000000000000000000000005f52601160045260245ffd5b5f610f9382610c54565b91507fffffffffffffffffffffffffffffffffffffffffffffffffffffffffffffffff8203610fc557610fc4610f5c565b5b600182019050919050565b610fd981610d49565b82525050565b5f606082019050610ff25f830186610fd0565b610fff6020830185610fd0565b61100c6040830184610c5d565b949350505050565b5f6060820190506110275f830186610c5d565b6110346020830185610c5d565b6110416040830184610c5d565b949350505050565b5f61105382610c54565b915061105e83610c54565b925082820190508082111561107657611075610f5c565b5b92915050565b5f61108682610c54565b915061109183610c54565b925082820261109f81610c54565b915082820484148315176110b6576110b5610f5c565b5b5092915050565b7f4e487b71000000000000000000000000000000000000000000000000000000005f52601260045260245ffd5b5f6110f482610c54565b91506110ff83610c54565b92508261110f5761110e6110bd565b5b828204905092915050565b5f61112482610c54565b91505f820361113657611135610f5c565b5b600182039050919050565b7f6974656d20646f65736e277420657869737400000000000000000000000000005f82015250565b5f611175601283610ee4565b915061118082611141565b602082019050919050565b5f6020820190508181035f8301526111a281611169565b9050919050565b7f6e6f7420656e6f75676820657468657220746f20636f766572206974656d20705f8201527f7269636500000000000000000000000000000000000000000000000000000000602082015250565b5f611203602483610ee4565b915061120e826111a9565b604082019050919050565b5f6020820190508181035f830152611230816111f7565b9050919050565b7f6974656d20616c726561647920736f6c640000000000000000000000000000005f82015250565b5f61126b601183610ee4565b915061127682611237565b602082019050919050565b5f6020820190508181035f8301526112988161125f565b9050919050565b5f6112a982610c54565b91506112b483610c54565b92508282039050818111156112cc576112cb610f5c565b5b9291505056fea2646970667358221220b77d13fcbd2c72ca7cc8e13febc9930f6308ecaccbe2ad9c0ac3a6ea3bb5ce7864736f6c63430008180033",
  "immutableReferences": {
    "3200": [
      {
        "length": 32,
        "start": 679
      },
      {
        "length": 32,
        "start": 2646
      }
    ],
    "3202": [
      {
        "length": 32,
        "start": 1376
      },
      {
        "length": 32,
        "start": 1677
      }
    ]
  },
  "source": "// SPDX-License-Identifier: MIT\r\npragma solidity >=0.8.19;\r\n\r\nimport \"@openzeppelin/contracts/token/ERC721/IERC721.sol\";\r\nimport \"@openzeppelin/contracts/utils/ReentrancyGuard.sol\";\r\n\r\ncontract Marketplace is ReentrancyGuard {\r\n\r\n    address payable public immutable feeAccount;\r\n    uint public immutable feePercent;\r\n    uint public offerCount;\r\n    uint public lastIndex;\r\n\r\n    struct Item {\r\n        uint itemIndex;\r\n        IERC721 nft;\r\n        uint tokenId;\r\n        uint price;\r\n        address payable seller;\r\n        bool sold;\r\n    }\r\n\r\n    // itemIndex => Item(itemIndex, nftAdr, tokenId, price, seller, sold)\r\n    mapping(uint => Item) public items;\r\n\r\n    event Offered(uint offerIndex, address indexed nft, uint tokenId, uint price, address indexed seller);\r\n    event Bought(uint offerIndex, address indexed nft, uint tokenId, uint price, address indexed seller, address indexed buyer);\r\n\r\n    constructor(uint _feePercent) {\r\n        feePercent = _feePercent;\r\n        feeAccount = payable(msg.sender);\r\n    }\r\n\r\n\r\n    // List\r\n    function makeOffer(IERC721 _nft, uint _tokenId, uint _price) external nonReentrant {\r\n        \r\n        require(_price > 0, \"Price must be greater than zero!\");\r\n\r\n        offerCount++;\r\n        lastIndex++;\r\n\r\n        _nft.transferFrom(msg.sender, address(this), _tokenId);\r\n\r\n        items[lastIndex] = Item(lastIndex, _nft, _tokenId, _price, payable(msg.sender), false);\r\n\r\n        emit Offered(lastIndex, address(_nft), _tokenId, _price, msg.sender);\r\n    }\r\n\r\n\r\n    // Buy\r\n    function purchase(uint _itemIndex) external payable nonReentrant {\r\n\r\n        Item storage item = items[_itemIndex];\r\n\r\n        uint _totalPrice = getTotalPrice(_itemIndex);\r\n\r\n        require(_itemIndex > 0 && _itemIndex <= lastIndex, \"item doesn't exist\");\r\n        require(msg.value >= _totalPrice, \"not enough ether to cover item price\");\r\n        require(!item.sold, \"item already sold\");\r\n\r\n        item.nft.transferFrom(address(this), msg.sender, item.tokenId);\r\n\r\n        item.seller.transfer(item.price);\r\n        feeAccount.transfer(_totalPrice - item.price);\r\n        \r\n        item.sold = true;\r\n        item.seller = payable(msg.sender);      // to be deleted\r\n\r\n        emit Bought(_itemIndex, address(item.nft), item.tokenId, item.price, item.seller, msg.sender);\r\n    }\r\n\r\n    // Edit\r\n    function editOffer(uint _itemIndex, uint _newPrice) public {\r\n        items[_itemIndex].price = _newPrice;   \r\n    }\r\n\r\n    // unListing\r\n    function cancelOffer(uint _itemIndex) public nonReentrant {\r\n        items[_itemIndex].nft.transferFrom(address(this), msg.sender, items[_itemIndex].tokenId);\r\n        delete items[_itemIndex];\r\n        offerCount--;\r\n    }\r\n\r\n    // get TotalPrice = price + Fee\r\n    function getTotalPrice(uint _itemIndex) public view returns (uint) {\r\n        return (items[_itemIndex].price * (100 + feePercent) / 100);\r\n    }\r\n\r\n    // get count of unSold NFTs\r\n    function getUnsoldNFTs() public view returns (uint count) {\r\n        for(uint i=1; i<=lastIndex; i++)\r\n            if (items[i].tokenId != 0 && items[i].sold == false)\r\n                count++;\r\n    }\r\n}",
  "sourcePath": "F:\\githubdesktop\\Blockchain-Developer\\1-Solidity\\5-Frameworks-and-Libraries\\01-Frameworks\\01-Truffle\\Sample-Projects\\MarketPlace\\contracts\\MarketPlace.sol",
  "compiler": {
    "name": "solc",
    "version": "0.8.24+commit.e11b9ed9.Emscripten.clang"
  },
  "schemaVersion": "3.4.13",
  "updatedAt": "2024-02-08T12:29:28.111Z",
  "devdoc": {
    "errors": {
      "ReentrancyGuardReentrantCall()": [
        {
          "details": "Unauthorized reentrant call."
        }
      ]
    },
    "kind": "dev",
    "methods": {},
    "version": 1
  },
  "userdoc": {
    "kind": "user",
    "methods": {},
    "version": 1
  }
}