{
  "contractName": "NFT",
  "abi": [
    {
      "inputs": [
        {
          "internalType": "uint256",
          "name": "_mintFee",
          "type": "uint256"
        },
        {
          "internalType": "address",
          "name": "initialOwner",
          "type": "address"
        }
      ],
      "stateMutability": "nonpayable",
      "type": "constructor"
    },
    {
      "inputs": [
        {
          "internalType": "address",
          "name": "sender",
          "type": "address"
        },
        {
          "internalType": "uint256",
          "name": "tokenId",
          "type": "uint256"
        },
        {
          "internalType": "address",
          "name": "owner",
          "type": "address"
        }
      ],
      "name": "ERC721IncorrectOwner",
      "type": "error"
    },
    {
      "inputs": [
        {
          "internalType": "address",
          "name": "operator",
          "type": "address"
        },
        {
          "internalType": "uint256",
          "name": "tokenId",
          "type": "uint256"
        }
      ],
      "name": "ERC721InsufficientApproval",
      "type": "error"
    },
    {
      "inputs": [
        {
          "internalType": "address",
          "name": "approver",
          "type": "address"
        }
      ],
      "name": "ERC721InvalidApprover",
      "type": "error"
    },
    {
      "inputs": [
        {
          "internalType": "address",
          "name": "operator",
          "type": "address"
        }
      ],
      "name": "ERC721InvalidOperator",
      "type": "error"
    },
    {
      "inputs": [
        {
          "internalType": "address",
          "name": "owner",
          "type": "address"
        }
      ],
      "name": "ERC721InvalidOwner",
      "type": "error"
    },
    {
      "inputs": [
        {
          "internalType": "address",
          "name": "receiver",
          "type": "address"
        }
      ],
      "name": "ERC721InvalidReceiver",
      "type": "error"
    },
    {
      "inputs": [
        {
          "internalType": "address",
          "name": "sender",
          "type": "address"
        }
      ],
      "name": "ERC721InvalidSender",
      "type": "error"
    },
    {
      "inputs": [
        {
          "internalType": "uint256",
          "name": "tokenId",
          "type": "uint256"
        }
      ],
      "name": "ERC721NonexistentToken",
      "type": "error"
    },
    {
      "inputs": [],
      "name": "Need_More_Eth",
      "type": "error"
    },
    {
      "inputs": [
        {
          "internalType": "address",
          "name": "owner",
          "type": "address"
        }
      ],
      "name": "OwnableInvalidOwner",
      "type": "error"
    },
    {
      "inputs": [
        {
          "internalType": "address",
          "name": "account",
          "type": "address"
        }
      ],
      "name": "OwnableUnauthorizedAccount",
      "type": "error"
    },
    {
      "anonymous": false,
      "inputs": [
        {
          "indexed": true,
          "internalType": "address",
          "name": "owner",
          "type": "address"
        },
        {
          "indexed": true,
          "internalType": "address",
          "name": "approved",
          "type": "address"
        },
        {
          "indexed": true,
          "internalType": "uint256",
          "name": "tokenId",
          "type": "uint256"
        }
      ],
      "name": "Approval",
      "type": "event"
    },
    {
      "anonymous": false,
      "inputs": [
        {
          "indexed": true,
          "internalType": "address",
          "name": "owner",
          "type": "address"
        },
        {
          "indexed": true,
          "internalType": "address",
          "name": "operator",
          "type": "address"
        },
        {
          "indexed": false,
          "internalType": "bool",
          "name": "approved",
          "type": "bool"
        }
      ],
      "name": "ApprovalForAll",
      "type": "event"
    },
    {
      "anonymous": false,
      "inputs": [
        {
          "indexed": false,
          "internalType": "uint256",
          "name": "_fromTokenId",
          "type": "uint256"
        },
        {
          "indexed": false,
          "internalType": "uint256",
          "name": "_toTokenId",
          "type": "uint256"
        }
      ],
      "name": "BatchMetadataUpdate",
      "type": "event"
    },
    {
      "anonymous": false,
      "inputs": [
        {
          "indexed": false,
          "internalType": "uint256",
          "name": "_tokenId",
          "type": "uint256"
        }
      ],
      "name": "MetadataUpdate",
      "type": "event"
    },
    {
      "anonymous": false,
      "inputs": [
        {
          "indexed": true,
          "internalType": "address",
          "name": "menter",
          "type": "address"
        },
        {
          "indexed": false,
          "internalType": "uint256",
          "name": "tokenId",
          "type": "uint256"
        }
      ],
      "name": "NftMinted",
      "type": "event"
    },
    {
      "anonymous": false,
      "inputs": [
        {
          "indexed": true,
          "internalType": "address",
          "name": "previousOwner",
          "type": "address"
        },
        {
          "indexed": true,
          "internalType": "address",
          "name": "newOwner",
          "type": "address"
        }
      ],
      "name": "OwnershipTransferred",
      "type": "event"
    },
    {
      "anonymous": false,
      "inputs": [
        {
          "indexed": true,
          "internalType": "address",
          "name": "from",
          "type": "address"
        },
        {
          "indexed": true,
          "internalType": "address",
          "name": "to",
          "type": "address"
        },
        {
          "indexed": true,
          "internalType": "uint256",
          "name": "tokenId",
          "type": "uint256"
        }
      ],
      "name": "Transfer",
      "type": "event"
    },
    {
      "inputs": [
        {
          "internalType": "address",
          "name": "to",
          "type": "address"
        },
        {
          "internalType": "uint256",
          "name": "tokenId",
          "type": "uint256"
        }
      ],
      "name": "approve",
      "outputs": [],
      "stateMutability": "nonpayable",
      "type": "function"
    },
    {
      "inputs": [
        {
          "internalType": "address",
          "name": "owner",
          "type": "address"
        }
      ],
      "name": "balanceOf",
      "outputs": [
        {
          "internalType": "uint256",
          "name": "",
          "type": "uint256"
        }
      ],
      "stateMutability": "view",
      "type": "function"
    },
    {
      "inputs": [
        {
          "internalType": "uint256",
          "name": "tokenId",
          "type": "uint256"
        }
      ],
      "name": "getApproved",
      "outputs": [
        {
          "internalType": "address",
          "name": "",
          "type": "address"
        }
      ],
      "stateMutability": "view",
      "type": "function"
    },
    {
      "inputs": [
        {
          "internalType": "address",
          "name": "owner",
          "type": "address"
        },
        {
          "internalType": "address",
          "name": "operator",
          "type": "address"
        }
      ],
      "name": "isApprovedForAll",
      "outputs": [
        {
          "internalType": "bool",
          "name": "",
          "type": "bool"
        }
      ],
      "stateMutability": "view",
      "type": "function"
    },
    {
      "inputs": [],
      "name": "name",
      "outputs": [
        {
          "internalType": "string",
          "name": "",
          "type": "string"
        }
      ],
      "stateMutability": "view",
      "type": "function"
    },
    {
      "inputs": [],
      "name": "owner",
      "outputs": [
        {
          "internalType": "address",
          "name": "",
          "type": "address"
        }
      ],
      "stateMutability": "view",
      "type": "function"
    },
    {
      "inputs": [
        {
          "internalType": "uint256",
          "name": "tokenId",
          "type": "uint256"
        }
      ],
      "name": "ownerOf",
      "outputs": [
        {
          "internalType": "address",
          "name": "",
          "type": "address"
        }
      ],
      "stateMutability": "view",
      "type": "function"
    },
    {
      "inputs": [],
      "name": "renounceOwnership",
      "outputs": [],
      "stateMutability": "nonpayable",
      "type": "function"
    },
    {
      "inputs": [
        {
          "internalType": "address",
          "name": "from",
          "type": "address"
        },
        {
          "internalType": "address",
          "name": "to",
          "type": "address"
        },
        {
          "internalType": "uint256",
          "name": "tokenId",
          "type": "uint256"
        }
      ],
      "name": "safeTransferFrom",
      "outputs": [],
      "stateMutability": "nonpayable",
      "type": "function"
    },
    {
      "inputs": [
        {
          "internalType": "address",
          "name": "from",
          "type": "address"
        },
        {
          "internalType": "address",
          "name": "to",
          "type": "address"
        },
        {
          "internalType": "uint256",
          "name": "tokenId",
          "type": "uint256"
        },
        {
          "internalType": "bytes",
          "name": "data",
          "type": "bytes"
        }
      ],
      "name": "safeTransferFrom",
      "outputs": [],
      "stateMutability": "nonpayable",
      "type": "function"
    },
    {
      "inputs": [
        {
          "internalType": "address",
          "name": "operator",
          "type": "address"
        },
        {
          "internalType": "bool",
          "name": "approved",
          "type": "bool"
        }
      ],
      "name": "setApprovalForAll",
      "outputs": [],
      "stateMutability": "nonpayable",
      "type": "function"
    },
    {
      "inputs": [
        {
          "internalType": "bytes4",
          "name": "interfaceId",
          "type": "bytes4"
        }
      ],
      "name": "supportsInterface",
      "outputs": [
        {
          "internalType": "bool",
          "name": "",
          "type": "bool"
        }
      ],
      "stateMutability": "view",
      "type": "function"
    },
    {
      "inputs": [],
      "name": "symbol",
      "outputs": [
        {
          "internalType": "string",
          "name": "",
          "type": "string"
        }
      ],
      "stateMutability": "view",
      "type": "function"
    },
    {
      "inputs": [
        {
          "internalType": "uint256",
          "name": "tokenId",
          "type": "uint256"
        }
      ],
      "name": "tokenURI",
      "outputs": [
        {
          "internalType": "string",
          "name": "",
          "type": "string"
        }
      ],
      "stateMutability": "view",
      "type": "function"
    },
    {
      "inputs": [
        {
          "internalType": "address",
          "name": "from",
          "type": "address"
        },
        {
          "internalType": "address",
          "name": "to",
          "type": "address"
        },
        {
          "internalType": "uint256",
          "name": "tokenId",
          "type": "uint256"
        }
      ],
      "name": "transferFrom",
      "outputs": [],
      "stateMutability": "nonpayable",
      "type": "function"
    },
    {
      "inputs": [
        {
          "internalType": "address",
          "name": "newOwner",
          "type": "address"
        }
      ],
      "name": "transferOwnership",
      "outputs": [],
      "stateMutability": "nonpayable",
      "type": "function"
    },
    {
      "inputs": [
        {
          "internalType": "address",
          "name": "to",
          "type": "address"
        },
        {
          "internalType": "string",
          "name": "_tokenURI",
          "type": "string"
        }
      ],
      "name": "mintNFT",
      "outputs": [
        {
          "internalType": "uint256",
          "name": "",
          "type": "uint256"
        }
      ],
      "stateMutability": "payable",
      "type": "function"
    },
    {
      "inputs": [],
      "name": "getMintFee",
      "outputs": [
        {
          "internalType": "uint256",
          "name": "",
          "type": "uint256"
        }
      ],
      "stateMutability": "view",
      "type": "function"
    },
    {
      "inputs": [],
      "name": "getTokenCounter",
      "outputs": [
        {
          "internalType": "uint256",
          "name": "",
          "type": "uint256"
        }
      ],
      "stateMutability": "view",
      "type": "function"
    }
  ],
  "bytecode": "0x60a060405234801562000010575f80fd5b5060405162002e2238038062002e228339818101604052810190620000369190620002bd565b806040518060400160405280600d81526020017f4d7920436f6c6c656374696f6e000000000000000000000000000000000000008152506040518060400160405280600381526020017f4d434c0000000000000000000000000000000000000000000000000000000000815250815f9081620000b391906200055d565b508060019081620000c591906200055d565b5050505f73ffffffffffffffffffffffffffffffffffffffff168173ffffffffffffffffffffffffffffffffffffffff16036200013b575f6040517f1e4fbdf700000000000000000000000000000000000000000000000000000000815260040162000132919062000652565b60405180910390fd5b6200014c816200015d60201b60201c565b50816080818152505050506200066d565b5f60075f9054906101000a900473ffffffffffffffffffffffffffffffffffffffff1690508160075f6101000a81548173ffffffffffffffffffffffffffffffffffffffff021916908373ffffffffffffffffffffffffffffffffffffffff1602179055508173ffffffffffffffffffffffffffffffffffffffff168173ffffffffffffffffffffffffffffffffffffffff167f8be0079c531659141344cd1fd0a4f28419497f9722a3daafe3b4186f6b6457e060405160405180910390a35050565b5f80fd5b5f819050919050565b620002388162000224565b811462000243575f80fd5b50565b5f8151905062000256816200022d565b92915050565b5f73ffffffffffffffffffffffffffffffffffffffff82169050919050565b5f62000287826200025c565b9050919050565b62000299816200027b565b8114620002a4575f80fd5b50565b5f81519050620002b7816200028e565b92915050565b5f8060408385031215620002d657620002d562000220565b5b5f620002e58582860162000246565b9250506020620002f885828601620002a7565b9150509250929050565b5f81519050919050565b7f4e487b71000000000000000000000000000000000000000000000000000000005f52604160045260245ffd5b7f4e487b71000000000000000000000000000000000000000000000000000000005f52602260045260245ffd5b5f60028204905060018216806200037e57607f821691505b60208210810362000394576200039362000339565b5b50919050565b5f819050815f5260205f209050919050565b5f6020601f8301049050919050565b5f82821b905092915050565b5f60088302620003f87fffffffffffffffffffffffffffffffffffffffffffffffffffffffffffffffff82620003bb565b620004048683620003bb565b95508019841693508086168417925050509392505050565b5f819050919050565b5f620004456200043f620004398462000224565b6200041c565b62000224565b9050919050565b5f819050919050565b620004608362000425565b620004786200046f826200044c565b848454620003c7565b825550505050565b5f90565b6200048e62000480565b6200049b81848462000455565b505050565b5b81811015620004c257620004b65f8262000484565b600181019050620004a1565b5050565b601f8211156200051157620004db816200039a565b620004e684620003ac565b81016020851015620004f6578190505b6200050e6200050585620003ac565b830182620004a0565b50505b505050565b5f82821c905092915050565b5f620005335f198460080262000516565b1980831691505092915050565b5f6200054d838362000522565b9150826002028217905092915050565b620005688262000302565b67ffffffffffffffff8111156200058457620005836200030c565b5b62000590825462000366565b6200059d828285620004c6565b5f60209050601f831160018114620005d3575f8415620005be578287015190505b620005ca858262000540565b86555062000639565b601f198416620005e3866200039a565b5f5b828110156200060c57848901518255600182019150602085019450602081019050620005e5565b868310156200062c578489015162000628601f89168262000522565b8355505b6001600288020188555050505b505050505050565b6200064c816200027b565b82525050565b5f602082019050620006675f83018462000641565b92915050565b6080516127956200068d5f395f81816107ab0152610a5e01526127955ff3fe608060405260043610610113575f3560e01c8063715018a61161009f578063b88d4fde11610063578063b88d4fde1461038f578063c87b56dd146103b7578063e985e9c5146103f3578063eacabe141461042f578063f2fde38b1461045f57610113565b8063715018a6146102d35780637a5caab3146102e95780638da5cb5b1461031357806395d89b411461033d578063a22cb4651461036757610113565b806323b872dd116100e657806323b872dd146101e157806342842e0e146102095780636352211e146102315780636e02007d1461026d57806370a082311461029757610113565b806301ffc9a71461011757806306fdde0314610153578063081812fc1461017d578063095ea7b3146101b9575b5f80fd5b348015610122575f80fd5b5061013d60048036038101906101389190611c4e565b610487565b60405161014a9190611c93565b60405180910390f35b34801561015e575f80fd5b506101676104e7565b6040516101749190611d36565b60405180910390f35b348015610188575f80fd5b506101a3600480360381019061019e9190611d89565b610576565b6040516101b09190611df3565b60405180910390f35b3480156101c4575f80fd5b506101df60048036038101906101da9190611e36565b610591565b005b3480156101ec575f80fd5b5061020760048036038101906102029190611e74565b6105a7565b005b348015610214575f80fd5b5061022f600480360381019061022a9190611e74565b6106a6565b005b34801561023c575f80fd5b5061025760048036038101906102529190611d89565b6106c5565b6040516102649190611df3565b60405180910390f35b348015610278575f80fd5b506102816106d6565b60405161028e9190611ed3565b60405180910390f35b3480156102a2575f80fd5b506102bd60048036038101906102b89190611eec565b6106df565b6040516102ca9190611ed3565b60405180910390f35b3480156102de575f80fd5b506102e7610795565b005b3480156102f4575f80fd5b506102fd6107a8565b60405161030a9190611ed3565b60405180910390f35b34801561031e575f80fd5b506103276107cf565b6040516103349190611df3565b60405180910390f35b348015610348575f80fd5b506103516107f7565b60405161035e9190611d36565b60405180910390f35b348015610372575f80fd5b5061038d60048036038101906103889190611f41565b610887565b005b34801561039a575f80fd5b506103b560048036038101906103b091906120ab565b61089d565b005b3480156103c2575f80fd5b506103dd60048036038101906103d89190611d89565b6108ba565b6040516103ea9190611d36565b60405180910390f35b3480156103fe575f80fd5b506104196004803603810190610414919061212b565b6109c5565b6040516104269190611c93565b60405180910390f35b61044960048036038101906104449190612207565b610a53565b6040516104569190611ed3565b60405180910390f35b34801561046a575f80fd5b5061048560048036038101906104809190611eec565b610b3b565b005b5f634906490660e01b7bffffffffffffffffffffffffffffffffffffffffffffffffffffffff1916827bffffffffffffffffffffffffffffffffffffffffffffffffffffffff191614806104e057506104df82610bbf565b5b9050919050565b60605f80546104f59061228e565b80601f01602080910402602001604051908101604052809291908181526020018280546105219061228e565b801561056c5780601f106105435761010080835404028352916020019161056c565b820191905f5260205f20905b81548152906001019060200180831161054f57829003601f168201915b5050505050905090565b5f61058082610ca0565b5061058a82610d26565b9050919050565b6105a3828261059e610d5f565b610d66565b5050565b5f73ffffffffffffffffffffffffffffffffffffffff168273ffffffffffffffffffffffffffffffffffffffff1603610617575f6040517f64a0ae9200000000000000000000000000000000000000000000000000000000815260040161060e9190611df3565b60405180910390fd5b5f61062a8383610625610d5f565b610d78565b90508373ffffffffffffffffffffffffffffffffffffffff168173ffffffffffffffffffffffffffffffffffffffff16146106a0578382826040517f64283d7b000000000000000000000000000000000000000000000000000000008152600401610697939291906122be565b60405180910390fd5b50505050565b6106c083838360405180602001604052805f81525061089d565b505050565b5f6106cf82610ca0565b9050919050565b5f600854905090565b5f8073ffffffffffffffffffffffffffffffffffffffff168273ffffffffffffffffffffffffffffffffffffffff1603610750575f6040517f89c62b640000000000000000000000000000000000000000000000000000000081526004016107479190611df3565b60405180910390fd5b60035f8373ffffffffffffffffffffffffffffffffffffffff1673ffffffffffffffffffffffffffffffffffffffff1681526020019081526020015f20549050919050565b61079d610f83565b6107a65f61100a565b565b5f7f0000000000000000000000000000000000000000000000000000000000000000905090565b5f60075f9054906101000a900473ffffffffffffffffffffffffffffffffffffffff16905090565b6060600180546108069061228e565b80601f01602080910402602001604051908101604052809291908181526020018280546108329061228e565b801561087d5780601f106108545761010080835404028352916020019161087d565b820191905f5260205f20905b81548152906001019060200180831161086057829003601f168201915b5050505050905090565b610899610892610d5f565b83836110cd565b5050565b6108a88484846105a7565b6108b484848484611236565b50505050565b60606108c582610ca0565b505f60065f8481526020019081526020015f2080546108e39061228e565b80601f016020809104026020016040519081016040528092919081815260200182805461090f9061228e565b801561095a5780601f106109315761010080835404028352916020019161095a565b820191905f5260205f20905b81548152906001019060200180831161093d57829003601f168201915b505050505090505f61096a6113e8565b90505f81510361097e5781925050506109c0565b5f825111156109b257808260405160200161099a92919061232d565b604051602081830303815290604052925050506109c0565b6109bb846113fe565b925050505b919050565b5f60055f8473ffffffffffffffffffffffffffffffffffffffff1673ffffffffffffffffffffffffffffffffffffffff1681526020019081526020015f205f8373ffffffffffffffffffffffffffffffffffffffff1673ffffffffffffffffffffffffffffffffffffffff1681526020019081526020015f205f9054906101000a900460ff16905092915050565b5f610a5c610f83565b7f0000000000000000000000000000000000000000000000000000000000000000341015610ab6576040517f6f88313900000000000000000000000000000000000000000000000000000000815260040160405180910390fd5b5f60085f815480929190610ac99061237d565b919050559050610ad98482611464565b610ae38184611481565b8373ffffffffffffffffffffffffffffffffffffffff167ff2b290a76feb54be358b555507421d765609171aefa0646f109a653228ff81b882604051610b299190611ed3565b60405180910390a28091505092915050565b610b43610f83565b5f73ffffffffffffffffffffffffffffffffffffffff168173ffffffffffffffffffffffffffffffffffffffff1603610bb3575f6040517f1e4fbdf7000000000000000000000000000000000000000000000000000000008152600401610baa9190611df3565b60405180910390fd5b610bbc8161100a565b50565b5f7f80ac58cd000000000000000000000000000000000000000000000000000000007bffffffffffffffffffffffffffffffffffffffffffffffffffffffff1916827bffffffffffffffffffffffffffffffffffffffffffffffffffffffff19161480610c8957507f5b5e139f000000000000000000000000000000000000000000000000000000007bffffffffffffffffffffffffffffffffffffffffffffffffffffffff1916827bffffffffffffffffffffffffffffffffffffffffffffffffffffffff1916145b80610c995750610c98826114db565b5b9050919050565b5f80610cab83611544565b90505f73ffffffffffffffffffffffffffffffffffffffff168173ffffffffffffffffffffffffffffffffffffffff1603610d1d57826040517f7e273289000000000000000000000000000000000000000000000000000000008152600401610d149190611ed3565b60405180910390fd5b80915050919050565b5f60045f8381526020019081526020015f205f9054906101000a900473ffffffffffffffffffffffffffffffffffffffff169050919050565b5f33905090565b610d73838383600161157d565b505050565b5f80610d8384611544565b90505f73ffffffffffffffffffffffffffffffffffffffff168373ffffffffffffffffffffffffffffffffffffffff1614610dc457610dc381848661173c565b5b5f73ffffffffffffffffffffffffffffffffffffffff168173ffffffffffffffffffffffffffffffffffffffff1614610e4f57610e035f855f8061157d565b600160035f8373ffffffffffffffffffffffffffffffffffffffff1673ffffffffffffffffffffffffffffffffffffffff1681526020019081526020015f205f82825403925050819055505b5f73ffffffffffffffffffffffffffffffffffffffff168573ffffffffffffffffffffffffffffffffffffffff1614610ece57600160035f8773ffffffffffffffffffffffffffffffffffffffff1673ffffffffffffffffffffffffffffffffffffffff1681526020019081526020015f205f82825401925050819055505b8460025f8681526020019081526020015f205f6101000a81548173ffffffffffffffffffffffffffffffffffffffff021916908373ffffffffffffffffffffffffffffffffffffffff160217905550838573ffffffffffffffffffffffffffffffffffffffff168273ffffffffffffffffffffffffffffffffffffffff167fddf252ad1be2c89b69c2b068fc378daa952ba7f163c4a11628f55a4df523b3ef60405160405180910390a4809150509392505050565b610f8b610d5f565b73ffffffffffffffffffffffffffffffffffffffff16610fa96107cf565b73ffffffffffffffffffffffffffffffffffffffff161461100857610fcc610d5f565b6040517f118cdaa7000000000000000000000000000000000000000000000000000000008152600401610fff9190611df3565b60405180910390fd5b565b5f60075f9054906101000a900473ffffffffffffffffffffffffffffffffffffffff1690508160075f6101000a81548173ffffffffffffffffffffffffffffffffffffffff021916908373ffffffffffffffffffffffffffffffffffffffff1602179055508173ffffffffffffffffffffffffffffffffffffffff168173ffffffffffffffffffffffffffffffffffffffff167f8be0079c531659141344cd1fd0a4f28419497f9722a3daafe3b4186f6b6457e060405160405180910390a35050565b5f73ffffffffffffffffffffffffffffffffffffffff168273ffffffffffffffffffffffffffffffffffffffff160361113d57816040517f5b08ba180000000000000000000000000000000000000000000000000000000081526004016111349190611df3565b60405180910390fd5b8060055f8573ffffffffffffffffffffffffffffffffffffffff1673ffffffffffffffffffffffffffffffffffffffff1681526020019081526020015f205f8473ffffffffffffffffffffffffffffffffffffffff1673ffffffffffffffffffffffffffffffffffffffff1681526020019081526020015f205f6101000a81548160ff0219169083151502179055508173ffffffffffffffffffffffffffffffffffffffff168373ffffffffffffffffffffffffffffffffffffffff167f17307eab39ab6107e8899845ad3d59bd9653f200f220920489ca2b5937696c31836040516112299190611c93565b60405180910390a3505050565b5f8373ffffffffffffffffffffffffffffffffffffffff163b11156113e2578273ffffffffffffffffffffffffffffffffffffffff1663150b7a02611279610d5f565b8685856040518563ffffffff1660e01b815260040161129b9493929190612416565b6020604051808303815f875af19250505080156112d657506040513d601f19601f820116820180604052508101906112d39190612474565b60015b611357573d805f8114611304576040519150601f19603f3d011682016040523d82523d5f602084013e611309565b606091505b505f81510361134f57836040517f64a0ae920000000000000000000000000000000000000000000000000000000081526004016113469190611df3565b60405180910390fd5b805181602001fd5b63150b7a0260e01b7bffffffffffffffffffffffffffffffffffffffffffffffffffffffff1916817bffffffffffffffffffffffffffffffffffffffffffffffffffffffff1916146113e057836040517f64a0ae920000000000000000000000000000000000000000000000000000000081526004016113d79190611df3565b60405180910390fd5b505b50505050565b606060405180602001604052805f815250905090565b606061140982610ca0565b505f6114136113e8565b90505f8151116114315760405180602001604052805f81525061145c565b8061143b846117ff565b60405160200161144c92919061232d565b6040516020818303038152906040525b915050919050565b61147d828260405180602001604052805f8152506118c9565b5050565b8060065f8481526020019081526020015f20908161149f919061263c565b507ff8e1a15aba9398e019f0b49df1a4fde98ee17ae345cb5f6b5e2c27f5033e8ce7826040516114cf9190611ed3565b60405180910390a15050565b5f7f01ffc9a7000000000000000000000000000000000000000000000000000000007bffffffffffffffffffffffffffffffffffffffffffffffffffffffff1916827bffffffffffffffffffffffffffffffffffffffffffffffffffffffff1916149050919050565b5f60025f8381526020019081526020015f205f9054906101000a900473ffffffffffffffffffffffffffffffffffffffff169050919050565b80806115b557505f73ffffffffffffffffffffffffffffffffffffffff168273ffffffffffffffffffffffffffffffffffffffff1614155b156116e7575f6115c484610ca0565b90505f73ffffffffffffffffffffffffffffffffffffffff168373ffffffffffffffffffffffffffffffffffffffff161415801561162e57508273ffffffffffffffffffffffffffffffffffffffff168173ffffffffffffffffffffffffffffffffffffffff1614155b8015611641575061163f81846109c5565b155b1561168357826040517fa9fbf51f00000000000000000000000000000000000000000000000000000000815260040161167a9190611df3565b60405180910390fd5b81156116e557838573ffffffffffffffffffffffffffffffffffffffff168273ffffffffffffffffffffffffffffffffffffffff167f8c5be1e5ebec7d5bd14f71427d1e84f3dd0314c0f7b2291e5b200ac8c7c3b92560405160405180910390a45b505b8360045f8581526020019081526020015f205f6101000a81548173ffffffffffffffffffffffffffffffffffffffff021916908373ffffffffffffffffffffffffffffffffffffffff16021790555050505050565b6117478383836118e4565b6117fa575f73ffffffffffffffffffffffffffffffffffffffff168373ffffffffffffffffffffffffffffffffffffffff16036117bb57806040517f7e2732890000000000000000000000000000000000000000000000000000000081526004016117b29190611ed3565b60405180910390fd5b81816040517f177e802f0000000000000000000000000000000000000000000000000000000081526004016117f192919061270b565b60405180910390fd5b505050565b60605f600161180d846119a4565b0190505f8167ffffffffffffffff81111561182b5761182a611f87565b5b6040519080825280601f01601f19166020018201604052801561185d5781602001600182028036833780820191505090505b5090505f82602001820190505b6001156118be578080600190039150507f3031323334353637383961626364656600000000000000000000000000000000600a86061a8153600a85816118b3576118b2612732565b5b0494505f850361186a575b819350505050919050565b6118d38383611af5565b6118df5f848484611236565b505050565b5f8073ffffffffffffffffffffffffffffffffffffffff168373ffffffffffffffffffffffffffffffffffffffff161415801561199b57508273ffffffffffffffffffffffffffffffffffffffff168473ffffffffffffffffffffffffffffffffffffffff16148061195c575061195b84846109c5565b5b8061199a57508273ffffffffffffffffffffffffffffffffffffffff1661198283610d26565b73ffffffffffffffffffffffffffffffffffffffff16145b5b90509392505050565b5f805f90507a184f03e93ff9f4daa797ed6e38ed64bf6a1f0100000000000000008310611a00577a184f03e93ff9f4daa797ed6e38ed64bf6a1f01000000000000000083816119f6576119f5612732565b5b0492506040810190505b6d04ee2d6d415b85acef81000000008310611a3d576d04ee2d6d415b85acef81000000008381611a3357611a32612732565b5b0492506020810190505b662386f26fc100008310611a6c57662386f26fc100008381611a6257611a61612732565b5b0492506010810190505b6305f5e1008310611a95576305f5e1008381611a8b57611a8a612732565b5b0492506008810190505b6127108310611aba576127108381611ab057611aaf612732565b5b0492506004810190505b60648310611add5760648381611ad357611ad2612732565b5b0492506002810190505b600a8310611aec576001810190505b80915050919050565b5f73ffffffffffffffffffffffffffffffffffffffff168273ffffffffffffffffffffffffffffffffffffffff1603611b65575f6040517f64a0ae92000000000000000000000000000000000000000000000000000000008152600401611b5c9190611df3565b60405180910390fd5b5f611b7183835f610d78565b90505f73ffffffffffffffffffffffffffffffffffffffff168173ffffffffffffffffffffffffffffffffffffffff1614611be3575f6040517f73c6ac6e000000000000000000000000000000000000000000000000000000008152600401611bda9190611df3565b60405180910390fd5b505050565b5f604051905090565b5f80fd5b5f80fd5b5f7fffffffff0000000000000000000000000000000000000000000000000000000082169050919050565b611c2d81611bf9565b8114611c37575f80fd5b50565b5f81359050611c4881611c24565b92915050565b5f60208284031215611c6357611c62611bf1565b5b5f611c7084828501611c3a565b91505092915050565b5f8115159050919050565b611c8d81611c79565b82525050565b5f602082019050611ca65f830184611c84565b92915050565b5f81519050919050565b5f82825260208201905092915050565b5f5b83811015611ce3578082015181840152602081019050611cc8565b5f8484015250505050565b5f601f19601f8301169050919050565b5f611d0882611cac565b611d128185611cb6565b9350611d22818560208601611cc6565b611d2b81611cee565b840191505092915050565b5f6020820190508181035f830152611d4e8184611cfe565b905092915050565b5f819050919050565b611d6881611d56565b8114611d72575f80fd5b50565b5f81359050611d8381611d5f565b92915050565b5f60208284031215611d9e57611d9d611bf1565b5b5f611dab84828501611d75565b91505092915050565b5f73ffffffffffffffffffffffffffffffffffffffff82169050919050565b5f611ddd82611db4565b9050919050565b611ded81611dd3565b82525050565b5f602082019050611e065f830184611de4565b92915050565b611e1581611dd3565b8114611e1f575f80fd5b50565b5f81359050611e3081611e0c565b92915050565b5f8060408385031215611e4c57611e4b611bf1565b5b5f611e5985828601611e22565b9250506020611e6a85828601611d75565b9150509250929050565b5f805f60608486031215611e8b57611e8a611bf1565b5b5f611e9886828701611e22565b9350506020611ea986828701611e22565b9250506040611eba86828701611d75565b9150509250925092565b611ecd81611d56565b82525050565b5f602082019050611ee65f830184611ec4565b92915050565b5f60208284031215611f0157611f00611bf1565b5b5f611f0e84828501611e22565b91505092915050565b611f2081611c79565b8114611f2a575f80fd5b50565b5f81359050611f3b81611f17565b92915050565b5f8060408385031215611f5757611f56611bf1565b5b5f611f6485828601611e22565b9250506020611f7585828601611f2d565b9150509250929050565b5f80fd5b5f80fd5b7f4e487b71000000000000000000000000000000000000000000000000000000005f52604160045260245ffd5b611fbd82611cee565b810181811067ffffffffffffffff82111715611fdc57611fdb611f87565b5b80604052505050565b5f611fee611be8565b9050611ffa8282611fb4565b919050565b5f67ffffffffffffffff82111561201957612018611f87565b5b61202282611cee565b9050602081019050919050565b828183375f83830152505050565b5f61204f61204a84611fff565b611fe5565b90508281526020810184848401111561206b5761206a611f83565b5b61207684828561202f565b509392505050565b5f82601f83011261209257612091611f7f565b5b81356120a284826020860161203d565b91505092915050565b5f805f80608085870312156120c3576120c2611bf1565b5b5f6120d087828801611e22565b94505060206120e187828801611e22565b93505060406120f287828801611d75565b925050606085013567ffffffffffffffff81111561211357612112611bf5565b5b61211f8782880161207e565b91505092959194509250565b5f806040838503121561214157612140611bf1565b5b5f61214e85828601611e22565b925050602061215f85828601611e22565b9150509250929050565b5f67ffffffffffffffff82111561218357612182611f87565b5b61218c82611cee565b9050602081019050919050565b5f6121ab6121a684612169565b611fe5565b9050828152602081018484840111156121c7576121c6611f83565b5b6121d284828561202f565b509392505050565b5f82601f8301126121ee576121ed611f7f565b5b81356121fe848260208601612199565b91505092915050565b5f806040838503121561221d5761221c611bf1565b5b5f61222a85828601611e22565b925050602083013567ffffffffffffffff81111561224b5761224a611bf5565b5b612257858286016121da565b9150509250929050565b7f4e487b71000000000000000000000000000000000000000000000000000000005f52602260045260245ffd5b5f60028204905060018216806122a557607f821691505b6020821081036122b8576122b7612261565b5b50919050565b5f6060820190506122d15f830186611de4565b6122de6020830185611ec4565b6122eb6040830184611de4565b949350505050565b5f81905092915050565b5f61230782611cac565b61231181856122f3565b9350612321818560208601611cc6565b80840191505092915050565b5f61233882856122fd565b915061234482846122fd565b91508190509392505050565b7f4e487b71000000000000000000000000000000000000000000000000000000005f52601160045260245ffd5b5f61238782611d56565b91507fffffffffffffffffffffffffffffffffffffffffffffffffffffffffffffffff82036123b9576123b8612350565b5b600182019050919050565b5f81519050919050565b5f82825260208201905092915050565b5f6123e8826123c4565b6123f281856123ce565b9350612402818560208601611cc6565b61240b81611cee565b840191505092915050565b5f6080820190506124295f830187611de4565b6124366020830186611de4565b6124436040830185611ec4565b818103606083015261245581846123de565b905095945050505050565b5f8151905061246e81611c24565b92915050565b5f6020828403121561248957612488611bf1565b5b5f61249684828501612460565b91505092915050565b5f819050815f5260205f209050919050565b5f6020601f8301049050919050565b5f82821b905092915050565b5f600883026124fb7fffffffffffffffffffffffffffffffffffffffffffffffffffffffffffffffff826124c0565b61250586836124c0565b95508019841693508086168417925050509392505050565b5f819050919050565b5f61254061253b61253684611d56565b61251d565b611d56565b9050919050565b5f819050919050565b61255983612526565b61256d61256582612547565b8484546124cc565b825550505050565b5f90565b612581612575565b61258c818484612550565b505050565b5b818110156125af576125a45f82612579565b600181019050612592565b5050565b601f8211156125f4576125c58161249f565b6125ce846124b1565b810160208510156125dd578190505b6125f16125e9856124b1565b830182612591565b50505b505050565b5f82821c905092915050565b5f6126145f19846008026125f9565b1980831691505092915050565b5f61262c8383612605565b9150826002028217905092915050565b61264582611cac565b67ffffffffffffffff81111561265e5761265d611f87565b5b612668825461228e565b6126738282856125b3565b5f60209050601f8311600181146126a4575f8415612692578287015190505b61269c8582612621565b865550612703565b601f1984166126b28661249f565b5f5b828110156126d9578489015182556001820191506020850194506020810190506126b4565b868310156126f657848901516126f2601f891682612605565b8355505b6001600288020188555050505b505050505050565b5f60408201905061271e5f830185611de4565b61272b6020830184611ec4565b9392505050565b7f4e487b71000000000000000000000000000000000000000000000000000000005f52601260045260245ffdfea2646970667358221220a7d7641726bb5053eb5b5fdefb2eb3daa4fca9d0a6338fdbbebf4bad9f424fe364736f6c63430008180033",
  "immutableReferences": {
    "3602": [
      {
        "length": 32,
        "start": 1963
      },
      {
        "length": 32,
        "start": 2654
      }
    ]
  },
  "source": "// SPDX-License-Identifier: MIT\r\npragma solidity >=0.8.19;\r\n\r\nimport \"@openzeppelin/contracts/token/ERC721/ERC721.sol\";\r\nimport \"@openzeppelin/contracts/token/ERC721/extensions/ERC721URIStorage.sol\";\r\nimport \"@openzeppelin/contracts/token/ERC721/extensions/ERC721Burnable.sol\";\r\nimport \"@openzeppelin/contracts/access/Ownable.sol\";\r\n//import \"@openzeppelin/contracts/utils/Counters.sol\";\r\n\r\nerror Need_More_Eth();\r\n\r\ncontract NFT is ERC721URIStorage, Ownable {\r\n\r\n    //using Counters for Counters.Counter;\r\n    //Counters.Counter private _tokenIds;\r\n\t\r\n    uint private _nextTokenId;\r\n    uint internal immutable mintFee;\r\n\r\n    event NftMinted(address indexed menter, uint tokenId);\r\n\r\n    constructor(uint _mintFee, address initialOwner) ERC721(\"My Collection\", \"MCL\") Ownable(initialOwner) {\r\n        mintFee = _mintFee;\r\n    }\r\n\r\n    function mintNFT(address to, string memory _tokenURI) external payable onlyOwner returns (uint) {\r\n        \r\n        if(msg.value < mintFee)\r\n            revert Need_More_Eth();\r\n\r\n        //require(msg.value >= mintFee, \"Need_More_Eth\");\r\n\r\n        //_tokenIds.increment();              // default : 0  -> counter = 1\r\n        //uint tokenId = _tokenIds.current(); // tokenId = 1\r\n\r\n        uint tokenId = _nextTokenId++;\r\n\r\n        _safeMint(to, tokenId);\r\n        _setTokenURI(tokenId, _tokenURI);\r\n\r\n        emit NftMinted(to, tokenId);\r\n        return tokenId;\r\n    }\r\n\r\n    function getMintFee() public view returns (uint) {\r\n        return mintFee;\r\n    }\r\n\r\n    function getTokenCounter() public view returns (uint) {\r\n        //return  _tokenIds.current();\r\n        return _nextTokenId;\r\n    }\r\n}",
  "sourcePath": "F:\\githubdesktop\\Blockchain-Developer\\1-Solidity\\5-Frameworks-and-Libraries\\01-Frameworks\\01-Truffle\\Sample-Projects\\MarketPlace\\contracts\\NFT.sol",
  "compiler": {
    "name": "solc",
    "version": "0.8.24+commit.e11b9ed9.Emscripten.clang"
  },
  "schemaVersion": "3.4.13",
  "updatedAt": "2024-02-08T12:29:28.131Z",
  "devdoc": {
    "errors": {
      "ERC721IncorrectOwner(address,uint256,address)": [
        {
          "details": "Indicates an error related to the ownership over a particular token. Used in transfers.",
          "params": {
            "owner": "Address of the current owner of a token.",
            "sender": "Address whose tokens are being transferred.",
            "tokenId": "Identifier number of a token."
          }
        }
      ],
      "ERC721InsufficientApproval(address,uint256)": [
        {
          "details": "Indicates a failure with the `operator`s approval. Used in transfers.",
          "params": {
            "operator": "Address that may be allowed to operate on tokens without being their owner.",
            "tokenId": "Identifier number of a token."
          }
        }
      ],
      "ERC721InvalidApprover(address)": [
        {
          "details": "Indicates a failure with the `approver` of a token to be approved. Used in approvals.",
          "params": {
            "approver": "Address initiating an approval operation."
          }
        }
      ],
      "ERC721InvalidOperator(address)": [
        {
          "details": "Indicates a failure with the `operator` to be approved. Used in approvals.",
          "params": {
            "operator": "Address that may be allowed to operate on tokens without being their owner."
          }
        }
      ],
      "ERC721InvalidOwner(address)": [
        {
          "details": "Indicates that an address can't be an owner. For example, `address(0)` is a forbidden owner in EIP-20. Used in balance queries.",
          "params": {
            "owner": "Address of the current owner of a token."
          }
        }
      ],
      "ERC721InvalidReceiver(address)": [
        {
          "details": "Indicates a failure with the token `receiver`. Used in transfers.",
          "params": {
            "receiver": "Address to which tokens are being transferred."
          }
        }
      ],
      "ERC721InvalidSender(address)": [
        {
          "details": "Indicates a failure with the token `sender`. Used in transfers.",
          "params": {
            "sender": "Address whose tokens are being transferred."
          }
        }
      ],
      "ERC721NonexistentToken(uint256)": [
        {
          "details": "Indicates a `tokenId` whose `owner` is the zero address.",
          "params": {
            "tokenId": "Identifier number of a token."
          }
        }
      ],
      "OwnableInvalidOwner(address)": [
        {
          "details": "The owner is not a valid owner account. (eg. `address(0)`)"
        }
      ],
      "OwnableUnauthorizedAccount(address)": [
        {
          "details": "The caller account is not authorized to perform an operation."
        }
      ]
    },
    "events": {
      "Approval(address,address,uint256)": {
        "details": "Emitted when `owner` enables `approved` to manage the `tokenId` token."
      },
      "ApprovalForAll(address,address,bool)": {
        "details": "Emitted when `owner` enables or disables (`approved`) `operator` to manage all of its assets."
      },
      "BatchMetadataUpdate(uint256,uint256)": {
        "details": "This event emits when the metadata of a range of tokens is changed. So that the third-party platforms such as NFT market could timely update the images and related attributes of the NFTs."
      },
      "MetadataUpdate(uint256)": {
        "details": "This event emits when the metadata of a token is changed. So that the third-party platforms such as NFT market could timely update the images and related attributes of the NFT."
      },
      "Transfer(address,address,uint256)": {
        "details": "Emitted when `tokenId` token is transferred from `from` to `to`."
      }
    },
    "kind": "dev",
    "methods": {
      "approve(address,uint256)": {
        "details": "See {IERC721-approve}."
      },
      "balanceOf(address)": {
        "details": "See {IERC721-balanceOf}."
      },
      "getApproved(uint256)": {
        "details": "See {IERC721-getApproved}."
      },
      "isApprovedForAll(address,address)": {
        "details": "See {IERC721-isApprovedForAll}."
      },
      "name()": {
        "details": "See {IERC721Metadata-name}."
      },
      "owner()": {
        "details": "Returns the address of the current owner."
      },
      "ownerOf(uint256)": {
        "details": "See {IERC721-ownerOf}."
      },
      "renounceOwnership()": {
        "details": "Leaves the contract without owner. It will not be possible to call `onlyOwner` functions. Can only be called by the current owner. NOTE: Renouncing ownership will leave the contract without an owner, thereby disabling any functionality that is only available to the owner."
      },
      "safeTransferFrom(address,address,uint256)": {
        "details": "See {IERC721-safeTransferFrom}."
      },
      "safeTransferFrom(address,address,uint256,bytes)": {
        "details": "See {IERC721-safeTransferFrom}."
      },
      "setApprovalForAll(address,bool)": {
        "details": "See {IERC721-setApprovalForAll}."
      },
      "supportsInterface(bytes4)": {
        "details": "See {IERC165-supportsInterface}"
      },
      "symbol()": {
        "details": "See {IERC721Metadata-symbol}."
      },
      "tokenURI(uint256)": {
        "details": "See {IERC721Metadata-tokenURI}."
      },
      "transferFrom(address,address,uint256)": {
        "details": "See {IERC721-transferFrom}."
      },
      "transferOwnership(address)": {
        "details": "Transfers ownership of the contract to a new account (`newOwner`). Can only be called by the current owner."
      }
    },
    "version": 1
  },
  "userdoc": {
    "kind": "user",
    "methods": {},
    "version": 1
  }
}