{
  "contractName": "Casino",
  "abi": [
    {
      "inputs": [],
      "stateMutability": "nonpayable",
      "type": "constructor"
    },
    {
      "anonymous": false,
      "inputs": [
        {
          "indexed": false,
          "internalType": "address payable",
          "name": "winner",
          "type": "address"
        },
        {
          "indexed": false,
          "internalType": "uint256",
          "name": "payout",
          "type": "uint256"
        }
      ],
      "name": "Payout",
      "type": "event"
    },
    {
      "anonymous": false,
      "inputs": [
        {
          "indexed": true,
          "internalType": "address payable",
          "name": "player",
          "type": "address"
        },
        {
          "indexed": false,
          "internalType": "uint256",
          "name": "betSize",
          "type": "uint256"
        },
        {
          "indexed": false,
          "internalType": "uint8",
          "name": "betNumber",
          "type": "uint8"
        },
        {
          "indexed": false,
          "internalType": "uint8",
          "name": "winningNumber",
          "type": "uint8"
        }
      ],
      "name": "Play",
      "type": "event"
    },
    {
      "inputs": [],
      "name": "owner",
      "outputs": [
        {
          "internalType": "address payable",
          "name": "",
          "type": "address"
        }
      ],
      "stateMutability": "view",
      "type": "function"
    },
    {
      "inputs": [],
      "name": "fund",
      "outputs": [],
      "stateMutability": "payable",
      "type": "function"
    },
    {
      "inputs": [
        {
          "internalType": "uint8",
          "name": "number",
          "type": "uint8"
        }
      ],
      "name": "bet",
      "outputs": [],
      "stateMutability": "payable",
      "type": "function"
    },
    {
      "inputs": [],
      "name": "getMaxBet",
      "outputs": [
        {
          "internalType": "uint256",
          "name": "",
          "type": "uint256"
        }
      ],
      "stateMutability": "view",
      "type": "function"
    },
    {
      "inputs": [],
      "name": "kill",
      "outputs": [],
      "stateMutability": "nonpayable",
      "type": "function"
    }
  ],
  "bytecode": "0x608060405234801561001057600080fd5b50336000806101000a81548173ffffffffffffffffffffffffffffffffffffffff021916908373ffffffffffffffffffffffffffffffffffffffff16021790555061089c806100606000396000f3fe60806040526004361061004a5760003560e01c806341c0e1b51461004f578063646668b6146100665780638da5cb5b14610091578063b60d4288146100bc578063d0821b0e146100c6575b600080fd5b34801561005b57600080fd5b506100646100e2565b005b34801561007257600080fd5b5061007b6101a9565b60405161008891906103d5565b60405180910390f35b34801561009d57600080fd5b506100a66101bd565b6040516100b39190610431565b60405180910390f35b6100c46101e1565b005b6100e060048036038101906100db919061048a565b6101e3565b005b60008054906101000a900473ffffffffffffffffffffffffffffffffffffffff1673ffffffffffffffffffffffffffffffffffffffff163373ffffffffffffffffffffffffffffffffffffffff1614610170576040517f08c379a00000000000000000000000000000000000000000000000000000000081526004016101679061053a565b60405180910390fd5b60008054906101000a900473ffffffffffffffffffffffffffffffffffffffff1673ffffffffffffffffffffffffffffffffffffffff16ff5b60006064476101b891906105b8565b905090565b60008054906101000a900473ffffffffffffffffffffffffffffffffffffffff1681565b565b6101eb6101a9565b34111561022d576040517f08c379a00000000000000000000000000000000000000000000000000000000081526004016102249061065b565b60405180910390fd5b60003411610270576040517f08c379a0000000000000000000000000000000000000000000000000000000008152600401610267906106c7565b60405180910390fd5b600061027a6102f6565b90503373ffffffffffffffffffffffffffffffffffffffff167f8d452175756441ce5a1392551bff6087cffc5fe41a0b0beb519c6194aab7cd853484846040516102c6939291906106f6565b60405180910390a28060ff168260ff16036102f2576102f133600a346102ec919061072d565b610316565b5b5050565b60006001600a436103079190610787565b61031191906107b8565b905090565b600081116103275761032661080e565b5b478111156103385761033761080e565b5b8173ffffffffffffffffffffffffffffffffffffffff166108fc829081150290604051600060405180830381858888f1935050505015801561037e573d6000803e3d6000fd5b507f5afeca38b2064c23a692c4cf353015d80ab3ecc417b4f893f372690c11fbd9a682826040516103b092919061083d565b60405180910390a15050565b6000819050919050565b6103cf816103bc565b82525050565b60006020820190506103ea60008301846103c6565b92915050565b600073ffffffffffffffffffffffffffffffffffffffff82169050919050565b600061041b826103f0565b9050919050565b61042b81610410565b82525050565b60006020820190506104466000830184610422565b92915050565b600080fd5b600060ff82169050919050565b61046781610451565b811461047257600080fd5b50565b6000813590506104848161045e565b92915050565b6000602082840312156104a05761049f61044c565b5b60006104ae84828501610475565b91505092915050565b600082825260208201905092915050565b7f4f6e6c7920746865206f776e65722063616e206b696c6c207468697320636f6e60008201527f7472616374000000000000000000000000000000000000000000000000000000602082015250565b60006105246025836104b7565b915061052f826104c8565b604082019050919050565b6000602082019050818103600083015261055381610517565b9050919050565b7f4e487b7100000000000000000000000000000000000000000000000000000000600052601260045260246000fd5b7f4e487b7100000000000000000000000000000000000000000000000000000000600052601160045260246000fd5b60006105c3826103bc565b91506105ce836103bc565b9250826105de576105dd61055a565b5b828204905092915050565b7f42657420616d6f756e742063616e206e6f7420657863656564206d617820626560008201527f742073697a650000000000000000000000000000000000000000000000000000602082015250565b60006106456026836104b7565b9150610650826105e9565b604082019050919050565b6000602082019050818103600083015261067481610638565b9050919050565b7f41206265742073686f756c6420626520706c6163656400000000000000000000600082015250565b60006106b16016836104b7565b91506106bc8261067b565b602082019050919050565b600060208201905081810360008301526106e0816106a4565b9050919050565b6106f081610451565b82525050565b600060608201905061070b60008301866103c6565b61071860208301856106e7565b61072560408301846106e7565b949350505050565b6000610738826103bc565b9150610743836103bc565b9250817fffffffffffffffffffffffffffffffffffffffffffffffffffffffffffffffff048311821515161561077c5761077b610589565b5b828202905092915050565b6000610792826103bc565b915061079d836103bc565b9250826107ad576107ac61055a565b5b828206905092915050565b60006107c3826103bc565b91506107ce836103bc565b9250827fffffffffffffffffffffffffffffffffffffffffffffffffffffffffffffffff0382111561080357610802610589565b5b828201905092915050565b7f4e487b7100000000000000000000000000000000000000000000000000000000600052600160045260246000fd5b60006040820190506108526000830185610422565b61085f60208301846103c6565b939250505056fea26469706673582212208e16a54be0a7cbbb851bc4c1d2660db9ef1ced533b5023eadc2c327bf751a56764736f6c634300080f0033",
  "immutableReferences": {},
  "source": "// SPDX-License-Identifier: MIT\r\npragma solidity ^0.8.15;\r\n\r\ncontract Casino {\r\n\r\n    address payable public owner;\r\n\r\n    event Play(address payable indexed player, uint256 betSize, uint8 betNumber, uint8 winningNumber);\r\n    event Payout(address payable winner, uint256 payout);\r\n\r\n    constructor() {\r\n        owner = payable(msg.sender);\r\n    }\r\n\r\n    function fund() external payable {}\r\n\r\n    function bet(uint8 number) external payable {\r\n        require(msg.value <= getMaxBet(), \"Bet amount can not exceed max bet size\");\r\n        require(msg.value > 0, \"A bet should be placed\");\r\n\r\n        uint8 winningNumber = generateWinningNumber();\r\n        emit Play(payable(msg.sender), msg.value, number, winningNumber);\r\n\r\n        if (number == winningNumber) {\r\n            payout(payable(msg.sender), msg.value * 10);\r\n        }\r\n    }\r\n\r\n    function getMaxBet() public view returns (uint256) {\r\n        return address(this).balance / 100;\r\n    }\r\n\r\n    function generateWinningNumber() internal view returns (uint8) {\r\n        return uint8(block.number % 10 + 1); // Don't do this in production\r\n    }\r\n\r\n    function payout(address payable winner, uint256 amount) internal {\r\n        assert(amount > 0);\r\n        assert(amount <= address(this).balance);\r\n\r\n        winner.transfer(amount);\r\n        emit Payout(winner, amount);\r\n    }\r\n\r\n    function kill() external {\r\n        require(msg.sender == owner, \"Only the owner can kill this contract\");\r\n        selfdestruct(owner);\r\n    }\r\n}\r\n",
  "sourcePath": "F:\\githubdesktop\\Blockchain-Course\\1-Solidity\\5-Frameworks-and-Libraries\\01-Frameworks\\01-Truffle\\Sample-Projects\\HD-Wallet-Provider\\contracts\\Casino.sol",
  "compiler": {
    "name": "solc",
    "version": "0.8.15+commit.e14f2714.Emscripten.clang"
  },
  "schemaVersion": "3.4.11",
  "updatedAt": "2023-03-14T12:18:43.868Z",
  "devdoc": {
    "kind": "dev",
    "methods": {},
    "version": 1
  },
  "userdoc": {
    "kind": "user",
    "methods": {},
    "version": 1
  }
}