{
	"data": {
		"bytecode": {
			"linkReferences": {},
			"object": "608060405234801561001057600080fd5b5061018e806100206000396000f3fe6080604052600436106100295760003560e01c80637b7f83901461002e5780638f977a961461005e575b600080fd5b610048600480360381019061004391906100d8565b61007c565b6040516100559190610114565b60405180910390f35b6100666100ad565b6040516100739190610114565b60405180910390f35b6000816000806101000a81548160ff021916908360ff16021790555060008054906101000a900460ff169050919050565b60008060009054906101000a900460ff16905090565b6000813590506100d281610141565b92915050565b6000602082840312156100ee576100ed61013c565b5b60006100fc848285016100c3565b91505092915050565b61010e8161012f565b82525050565b60006020820190506101296000830184610105565b92915050565b600060ff82169050919050565b600080fd5b61014a8161012f565b811461015557600080fd5b5056fea26469706673582212209de4b67cd763353354446bb9fddb83fcdea22e02dad57b44c80fa27189cfa9ec64736f6c63430008060033",
			"opcodes": "PUSH1 0x80 PUSH1 0x40 MSTORE CALLVALUE DUP1 ISZERO PUSH2 0x10 JUMPI PUSH1 0x0 DUP1 REVERT JUMPDEST POP PUSH2 0x18E DUP1 PUSH2 0x20 PUSH1 0x0 CODECOPY PUSH1 0x0 RETURN INVALID PUSH1 0x80 PUSH1 0x40 MSTORE PUSH1 0x4 CALLDATASIZE LT PUSH2 0x29 JUMPI PUSH1 0x0 CALLDATALOAD PUSH1 0xE0 SHR DUP1 PUSH4 0x7B7F8390 EQ PUSH2 0x2E JUMPI DUP1 PUSH4 0x8F977A96 EQ PUSH2 0x5E JUMPI JUMPDEST PUSH1 0x0 DUP1 REVERT JUMPDEST PUSH2 0x48 PUSH1 0x4 DUP1 CALLDATASIZE SUB DUP2 ADD SWAP1 PUSH2 0x43 SWAP2 SWAP1 PUSH2 0xD8 JUMP JUMPDEST PUSH2 0x7C JUMP JUMPDEST PUSH1 0x40 MLOAD PUSH2 0x55 SWAP2 SWAP1 PUSH2 0x114 JUMP JUMPDEST PUSH1 0x40 MLOAD DUP1 SWAP2 SUB SWAP1 RETURN JUMPDEST PUSH2 0x66 PUSH2 0xAD JUMP JUMPDEST PUSH1 0x40 MLOAD PUSH2 0x73 SWAP2 SWAP1 PUSH2 0x114 JUMP JUMPDEST PUSH1 0x40 MLOAD DUP1 SWAP2 SUB SWAP1 RETURN JUMPDEST PUSH1 0x0 DUP2 PUSH1 0x0 DUP1 PUSH2 0x100 EXP DUP2 SLOAD DUP2 PUSH1 0xFF MUL NOT AND SWAP1 DUP4 PUSH1 0xFF AND MUL OR SWAP1 SSTORE POP PUSH1 0x0 DUP1 SLOAD SWAP1 PUSH2 0x100 EXP SWAP1 DIV PUSH1 0xFF AND SWAP1 POP SWAP2 SWAP1 POP JUMP JUMPDEST PUSH1 0x0 DUP1 PUSH1 0x0 SWAP1 SLOAD SWAP1 PUSH2 0x100 EXP SWAP1 DIV PUSH1 0xFF AND SWAP1 POP SWAP1 JUMP JUMPDEST PUSH1 0x0 DUP2 CALLDATALOAD SWAP1 POP PUSH2 0xD2 DUP2 PUSH2 0x141 JUMP JUMPDEST SWAP3 SWAP2 POP POP JUMP JUMPDEST PUSH1 0x0 PUSH1 0x20 DUP3 DUP5 SUB SLT ISZERO PUSH2 0xEE JUMPI PUSH2 0xED PUSH2 0x13C JUMP JUMPDEST JUMPDEST PUSH1 0x0 PUSH2 0xFC DUP5 DUP3 DUP6 ADD PUSH2 0xC3 JUMP JUMPDEST SWAP2 POP POP SWAP3 SWAP2 POP POP JUMP JUMPDEST PUSH2 0x10E DUP2 PUSH2 0x12F JUMP JUMPDEST DUP3 MSTORE POP POP JUMP JUMPDEST PUSH1 0x0 PUSH1 0x20 DUP3 ADD SWAP1 POP PUSH2 0x129 PUSH1 0x0 DUP4 ADD DUP5 PUSH2 0x105 JUMP JUMPDEST SWAP3 SWAP2 POP POP JUMP JUMPDEST PUSH1 0x0 PUSH1 0xFF DUP3 AND SWAP1 POP SWAP2 SWAP1 POP JUMP JUMPDEST PUSH1 0x0 DUP1 REVERT JUMPDEST PUSH2 0x14A DUP2 PUSH2 0x12F JUMP JUMPDEST DUP2 EQ PUSH2 0x155 JUMPI PUSH1 0x0 DUP1 REVERT JUMPDEST POP JUMP INVALID LOG2 PUSH5 0x6970667358 0x22 SLT KECCAK256 SWAP14 0xE4 0xB6 PUSH29 0xD763353354446BB9FDDB83FCDEA22E02DAD57B44C80FA27189CFA9EC64 PUSH20 0x6F6C634300080600330000000000000000000000 "
		},
		"gasEstimates": {
			"creation": {
				"codeDepositCost": "79600",
				"executionCost": "129",
				"totalCost": "79729"
			},
			"external": {
				"ExpensiveInfo(uint8)": "infinite",
				"cheapInfo()": "2455"
			}
		},
		"methodIdentifiers": {
			"ExpensiveInfo(uint8)": "7b7f8390",
			"cheapInfo()": "8f977a96"
		}
	},
	"abi": [
		{
			"inputs": [
				{
					"internalType": "uint8",
					"name": "x_",
					"type": "uint8"
				}
			],
			"name": "ExpensiveInfo",
			"outputs": [
				{
					"internalType": "uint8",
					"name": "ret",
					"type": "uint8"
				}
			],
			"stateMutability": "payable",
			"type": "function"
		},
		{
			"inputs": [],
			"name": "cheapInfo",
			"outputs": [
				{
					"internalType": "uint8",
					"name": "ret",
					"type": "uint8"
				}
			],
			"stateMutability": "payable",
			"type": "function"
		}
	]
}